{
  "_format": "hh-sol-artifact-1",
  "contractName": "KuiperNFTMarketplace",
  "sourceName": "contracts/KuiperMarketplace.sol",
  "abi": [
    {
      "inputs": [
        {
          "internalType": "uint256",
          "name": "_platformFee",
          "type": "uint256"
        },
        {
          "internalType": "address",
          "name": "_feeRecipient",
          "type": "address"
        },
        {
          "internalType": "contract IKuiperNFTFactory",
          "name": "_kuiperNFTFactory",
          "type": "address"
        }
      ],
      "stateMutability": "nonpayable",
      "type": "constructor"
    },
    {
      "anonymous": false,
      "inputs": [
        {
          "indexed": true,
          "internalType": "address",
          "name": "nft",
          "type": "address"
        },
        {
          "indexed": true,
          "internalType": "uint256",
          "name": "tokenId",
          "type": "uint256"
        },
        {
          "indexed": false,
          "internalType": "address",
          "name": "payToken",
          "type": "address"
        },
        {
          "indexed": false,
          "internalType": "uint256",
          "name": "offerPrice",
          "type": "uint256"
        },
        {
          "indexed": false,
          "internalType": "address",
          "name": "offerer",
          "type": "address"
        },
        {
          "indexed": true,
          "internalType": "address",
          "name": "nftOwner",
          "type": "address"
        }
      ],
      "name": "AcceptedNFT",
      "type": "event"
    },
    {
      "anonymous": false,
      "inputs": [
        {
          "indexed": true,
          "internalType": "address",
          "name": "nft",
          "type": "address"
        },
        {
          "indexed": true,
          "internalType": "uint256",
          "name": "tokenId",
          "type": "uint256"
        },
        {
          "indexed": false,
          "internalType": "address",
          "name": "payToken",
          "type": "address"
        },
        {
          "indexed": false,
          "internalType": "uint256",
          "name": "price",
          "type": "uint256"
        },
        {
          "indexed": false,
          "internalType": "address",
          "name": "seller",
          "type": "address"
        },
        {
          "indexed": true,
          "internalType": "address",
          "name": "buyer",
          "type": "address"
        }
      ],
      "name": "BoughtNFT",
      "type": "event"
    },
    {
      "anonymous": false,
      "inputs": [
        {
          "indexed": true,
          "internalType": "address",
          "name": "nft",
          "type": "address"
        },
        {
          "indexed": true,
          "internalType": "uint256",
          "name": "tokenId",
          "type": "uint256"
        },
        {
          "indexed": false,
          "internalType": "address",
          "name": "payToken",
          "type": "address"
        },
        {
          "indexed": false,
          "internalType": "uint256",
          "name": "offerPrice",
          "type": "uint256"
        },
        {
          "indexed": true,
          "internalType": "address",
          "name": "offerer",
          "type": "address"
        }
      ],
      "name": "CanceledOfferredNFT",
      "type": "event"
    },
    {
      "anonymous": false,
      "inputs": [
        {
          "indexed": true,
          "internalType": "address",
          "name": "nft",
          "type": "address"
        },
        {
          "indexed": true,
          "internalType": "uint256",
          "name": "tokenId",
          "type": "uint256"
        },
        {
          "indexed": false,
          "internalType": "address",
          "name": "payToken",
          "type": "address"
        },
        {
          "indexed": false,
          "internalType": "uint256",
          "name": "price",
          "type": "uint256"
        },
        {
          "indexed": false,
          "internalType": "uint256",
          "name": "minBid",
          "type": "uint256"
        },
        {
          "indexed": false,
          "internalType": "uint256",
          "name": "startTime",
          "type": "uint256"
        },
        {
          "indexed": false,
          "internalType": "uint256",
          "name": "endTime",
          "type": "uint256"
        },
        {
          "indexed": true,
          "internalType": "address",
          "name": "creator",
          "type": "address"
        }
      ],
      "name": "CreatedAuction",
      "type": "event"
    },
    {
      "anonymous": false,
      "inputs": [
        {
          "indexed": true,
          "internalType": "address",
          "name": "nft",
          "type": "address"
        },
        {
          "indexed": true,
          "internalType": "uint256",
          "name": "tokenId",
          "type": "uint256"
        },
        {
          "indexed": false,
          "internalType": "address",
          "name": "payToken",
          "type": "address"
        },
        {
          "indexed": false,
          "internalType": "uint256",
          "name": "price",
          "type": "uint256"
        },
        {
          "indexed": true,
          "internalType": "address",
          "name": "seller",
          "type": "address"
        }
      ],
      "name": "ListedNFT",
      "type": "event"
    },
    {
      "anonymous": false,
      "inputs": [
        {
          "indexed": true,
          "internalType": "address",
          "name": "nft",
          "type": "address"
        },
        {
          "indexed": true,
          "internalType": "uint256",
          "name": "tokenId",
          "type": "uint256"
        },
        {
          "indexed": false,
          "internalType": "address",
          "name": "payToken",
          "type": "address"
        },
        {
          "indexed": false,
          "internalType": "uint256",
          "name": "offerPrice",
          "type": "uint256"
        },
        {
          "indexed": true,
          "internalType": "address",
          "name": "offerer",
          "type": "address"
        }
      ],
      "name": "OfferredNFT",
      "type": "event"
    },
    {
      "anonymous": false,
      "inputs": [
        {
          "indexed": true,
          "internalType": "address",
          "name": "previousOwner",
          "type": "address"
        },
        {
          "indexed": true,
          "internalType": "address",
          "name": "newOwner",
          "type": "address"
        }
      ],
      "name": "OwnershipTransferred",
      "type": "event"
    },
    {
      "anonymous": false,
      "inputs": [
        {
          "indexed": true,
          "internalType": "address",
          "name": "nft",
          "type": "address"
        },
        {
          "indexed": true,
          "internalType": "uint256",
          "name": "tokenId",
          "type": "uint256"
        },
        {
          "indexed": false,
          "internalType": "address",
          "name": "payToken",
          "type": "address"
        },
        {
          "indexed": false,
          "internalType": "uint256",
          "name": "bidPrice",
          "type": "uint256"
        },
        {
          "indexed": true,
          "internalType": "address",
          "name": "bidder",
          "type": "address"
        }
      ],
      "name": "PlacedBid",
      "type": "event"
    },
    {
      "anonymous": false,
      "inputs": [
        {
          "indexed": true,
          "internalType": "address",
          "name": "nft",
          "type": "address"
        },
        {
          "indexed": true,
          "internalType": "uint256",
          "name": "tokenId",
          "type": "uint256"
        },
        {
          "indexed": false,
          "internalType": "address",
          "name": "creator",
          "type": "address"
        },
        {
          "indexed": true,
          "internalType": "address",
          "name": "winner",
          "type": "address"
        },
        {
          "indexed": false,
          "internalType": "uint256",
          "name": "price",
          "type": "uint256"
        },
        {
          "indexed": false,
          "internalType": "address",
          "name": "caller",
          "type": "address"
        }
      ],
      "name": "ResultedAuction",
      "type": "event"
    },
    {
      "inputs": [
        {
          "internalType": "address",
          "name": "_nft",
          "type": "address"
        },
        {
          "internalType": "uint256",
          "name": "_tokenId",
          "type": "uint256"
        },
        {
          "internalType": "address",
          "name": "_offerer",
          "type": "address"
        }
      ],
      "name": "acceptOfferNFT",
      "outputs": [],
      "stateMutability": "nonpayable",
      "type": "function"
    },
    {
      "inputs": [
        {
          "internalType": "address",
          "name": "_token",
          "type": "address"
        }
      ],
      "name": "addPayableToken",
      "outputs": [],
      "stateMutability": "nonpayable",
      "type": "function"
    },
    {
      "inputs": [
        {
          "internalType": "address",
          "name": "_nft",
          "type": "address"
        },
        {
          "internalType": "uint256",
          "name": "_tokenId",
          "type": "uint256"
        },
        {
          "internalType": "uint256",
          "name": "_bidPrice",
          "type": "uint256"
        }
      ],
      "name": "bidPlace",
      "outputs": [],
      "stateMutability": "nonpayable",
      "type": "function"
    },
    {
      "inputs": [
        {
          "internalType": "address",
          "name": "_nft",
          "type": "address"
        },
        {
          "internalType": "uint256",
          "name": "_tokenId",
          "type": "uint256"
        },
        {
          "internalType": "address",
          "name": "_payToken",
          "type": "address"
        },
        {
          "internalType": "uint256",
          "name": "_price",
          "type": "uint256"
        }
      ],
      "name": "buyNFT",
      "outputs": [],
      "stateMutability": "nonpayable",
      "type": "function"
    },
    {
      "inputs": [
        {
          "internalType": "uint256",
          "name": "_price",
          "type": "uint256"
        }
      ],
      "name": "calculatePlatformFee",
      "outputs": [
        {
          "internalType": "uint256",
          "name": "",
          "type": "uint256"
        }
      ],
      "stateMutability": "view",
      "type": "function"
    },
    {
      "inputs": [
        {
          "internalType": "uint256",
          "name": "_royalty",
          "type": "uint256"
        },
        {
          "internalType": "uint256",
          "name": "_price",
          "type": "uint256"
        }
      ],
      "name": "calculateRoyalty",
      "outputs": [
        {
          "internalType": "uint256",
          "name": "",
          "type": "uint256"
        }
      ],
      "stateMutability": "pure",
      "type": "function"
    },
    {
      "inputs": [
        {
          "internalType": "address",
          "name": "_nft",
          "type": "address"
        },
        {
          "internalType": "uint256",
          "name": "_tokenId",
          "type": "uint256"
        }
      ],
      "name": "cancelAuction",
      "outputs": [],
      "stateMutability": "nonpayable",
      "type": "function"
    },
    {
      "inputs": [
        {
          "internalType": "address",
          "name": "_nft",
          "type": "address"
        },
        {
          "internalType": "uint256",
          "name": "_tokenId",
          "type": "uint256"
        }
      ],
      "name": "cancelListedNFT",
      "outputs": [],
      "stateMutability": "nonpayable",
      "type": "function"
    },
    {
      "inputs": [
        {
          "internalType": "address",
          "name": "_nft",
          "type": "address"
        },
        {
          "internalType": "uint256",
          "name": "_tokenId",
          "type": "uint256"
        }
      ],
      "name": "cancelOfferNFT",
      "outputs": [],
      "stateMutability": "nonpayable",
      "type": "function"
    },
    {
      "inputs": [
        {
          "internalType": "address",
          "name": "_feeRecipient",
          "type": "address"
        }
      ],
      "name": "changeFeeRecipient",
      "outputs": [],
      "stateMutability": "nonpayable",
      "type": "function"
    },
    {
      "inputs": [
        {
          "internalType": "address",
          "name": "_payableToken",
          "type": "address"
        }
      ],
      "name": "checkIsPayableToken",
      "outputs": [
        {
          "internalType": "bool",
          "name": "",
          "type": "bool"
        }
      ],
      "stateMutability": "view",
      "type": "function"
    },
    {
      "inputs": [
        {
          "internalType": "address",
          "name": "_nft",
          "type": "address"
        },
        {
          "internalType": "uint256",
          "name": "_tokenId",
          "type": "uint256"
        },
        {
          "internalType": "address",
          "name": "_payToken",
          "type": "address"
        },
        {
          "internalType": "uint256",
          "name": "_price",
          "type": "uint256"
        },
        {
          "internalType": "uint256",
          "name": "_minBid",
          "type": "uint256"
        },
        {
          "internalType": "uint256",
          "name": "_startTime",
          "type": "uint256"
        },
        {
          "internalType": "uint256",
          "name": "_endTime",
          "type": "uint256"
        }
      ],
      "name": "createAuction",
      "outputs": [],
      "stateMutability": "nonpayable",
      "type": "function"
    },
    {
      "inputs": [
        {
          "internalType": "address",
          "name": "_nft",
          "type": "address"
        },
        {
          "internalType": "uint256",
          "name": "_tokenId",
          "type": "uint256"
        }
      ],
      "name": "getListedNFT",
      "outputs": [
        {
          "components": [
            {
              "internalType": "address",
              "name": "nft",
              "type": "address"
            },
            {
              "internalType": "uint256",
              "name": "tokenId",
              "type": "uint256"
            },
            {
              "internalType": "address",
              "name": "seller",
              "type": "address"
            },
            {
              "internalType": "address",
              "name": "payToken",
              "type": "address"
            },
            {
              "internalType": "uint256",
              "name": "price",
              "type": "uint256"
            },
            {
              "internalType": "bool",
              "name": "sold",
              "type": "bool"
            }
          ],
          "internalType": "struct KuiperNFTMarketplace.ListNFT",
          "name": "",
          "type": "tuple"
        }
      ],
      "stateMutability": "view",
      "type": "function"
    },
    {
      "inputs": [],
      "name": "getPayableTokens",
      "outputs": [
        {
          "internalType": "address[]",
          "name": "",
          "type": "address[]"
        }
      ],
      "stateMutability": "view",
      "type": "function"
    },
    {
      "inputs": [
        {
          "internalType": "address",
          "name": "_nft",
          "type": "address"
        },
        {
          "internalType": "uint256",
          "name": "_tokenId",
          "type": "uint256"
        },
        {
          "internalType": "address",
          "name": "_payToken",
          "type": "address"
        },
        {
          "internalType": "uint256",
          "name": "_price",
          "type": "uint256"
        }
      ],
      "name": "listNft",
      "outputs": [],
      "stateMutability": "nonpayable",
      "type": "function"
    },
    {
      "inputs": [
        {
          "internalType": "address",
          "name": "_nft",
          "type": "address"
        },
        {
          "internalType": "uint256",
          "name": "_tokenId",
          "type": "uint256"
        },
        {
          "internalType": "address",
          "name": "_payToken",
          "type": "address"
        },
        {
          "internalType": "uint256",
          "name": "_offerPrice",
          "type": "uint256"
        }
      ],
      "name": "offerNFT",
      "outputs": [],
      "stateMutability": "nonpayable",
      "type": "function"
    },
    {
      "inputs": [],
      "name": "owner",
      "outputs": [
        {
          "internalType": "address",
          "name": "",
          "type": "address"
        }
      ],
      "stateMutability": "view",
      "type": "function"
    },
    {
      "inputs": [],
      "name": "renounceOwnership",
      "outputs": [],
      "stateMutability": "nonpayable",
      "type": "function"
    },
    {
      "inputs": [
        {
          "internalType": "address",
          "name": "_nft",
          "type": "address"
        },
        {
          "internalType": "uint256",
          "name": "_tokenId",
          "type": "uint256"
        }
      ],
      "name": "resultAuction",
      "outputs": [],
      "stateMutability": "nonpayable",
      "type": "function"
    },
    {
      "inputs": [
        {
          "internalType": "address",
          "name": "newOwner",
          "type": "address"
        }
      ],
      "name": "transferOwnership",
      "outputs": [],
      "stateMutability": "nonpayable",
      "type": "function"
    },
    {
      "inputs": [
        {
          "internalType": "uint256",
          "name": "_platformFee",
          "type": "uint256"
        }
      ],
      "name": "updatePlatformFee",
      "outputs": [],
      "stateMutability": "nonpayable",
      "type": "function"
    }
  ],
  "bytecode": "0x60a06040523480156200001157600080fd5b506040516200391038038062003910833981016040819052620000349162000126565b6200003f33620000d6565b600180556127108311156200009a5760405162461bcd60e51b815260206004820152601a60248201527f63616e2774206d6f7265207468616e2031302070657263656e74000000000000604482015260640160405180910390fd5b600292909255600380546001600160a01b0319166001600160a01b039290921691909117905560601b6001600160601b03191660805262000186565b600080546001600160a01b038381166001600160a01b0319831681178455604051919092169283917f8be0079c531659141344cd1fd0a4f28419497f9722a3daafe3b4186f6b6457e09190a35050565b6000806000606084860312156200013b578283fd5b8351925060208401516200014f816200016d565b604085015190925062000162816200016d565b809150509250925092565b6001600160a01b03811681146200018357600080fd5b50565b60805160601c61376b620001a56000396000612276015261376b6000f3fe608060405234801561001057600080fd5b50600436106101375760003560e01c80638da5cb5b116100b8578063d863a1a71161007c578063d863a1a714610296578063dc3c3dfd146102a9578063dcbb63e6146103b9578063eb95711b146103cc578063f01ade78146103df578063f2fde38b146103f257600080fd5b80638da5cb5b14610206578063981b836c146102215780639d8f4f5514610234578063aa0b598814610270578063b0708a351461028357600080fd5b806346f5ab31116100ff57806346f5ab31146101b05780635b5b3314146101c35780635f7063ef146101d8578063715018a6146101eb578063859b97fe146101f357600080fd5b80630cbab4f71461013c578063122b0645146101625780631320138514610177578063236040711461018a578063465c731f1461019d575b600080fd5b61014f61014a366004613506565b610405565b6040519081526020015b60405180910390f35b61017561017036600461344e565b610428565b005b610175610185366004613363565b610958565b610175610198366004613363565b610a8f565b6101756101ab36600461339b565b610b26565b6101756101be36600461339b565b610d4a565b6101cb61107b565b6040516101599190613594565b6101756101e636600461339b565b6110dd565b61017561165d565b61017561020136600461339b565b611693565b6000546040516001600160a01b039091168152602001610159565b61017561022f366004613407565b611a1e565b610260610242366004613363565b6001600160a01b031660009081526004602052604090205460ff1690565b6040519015158152602001610159565b61017561027e366004613506565b611dbc565b61014f610291366004613536565b611e3d565b6101756102a43660046134b2565b611e5d565b6103606102b736600461339b565b6040805160c081018252600080825260208201819052918101829052606081018290526080810182905260a0810191909152506001600160a01b03918216600090815260066020908152604080832093835292815290829020825160c081018452815485168152600182015492810192909252600281015484169282019290925260038201549092166060830152600481015460808301526005015460ff16151560a082015290565b604051610159919081516001600160a01b03908116825260208084015190830152604080840151821690830152606080840151909116908201526080808301519082015260a09182015115159181019190915260c00190565b6101756103c7366004613407565b612255565b6101756103da3660046133c6565b612625565b6101756103ed366004613407565b612cd6565b610175610400366004613363565b613278565b60006127106002548361041891906136d4565b61042291906136b4565b92915050565b846001600160a01b0381161580159061045957506001600160a01b03811660009081526004602052604090205460ff165b61047e5760405162461bcd60e51b815260040161047590613671565b60405180910390fd5b6001600160a01b0388811660009081526008602081815260408084208c855282529283902083516101808101855281548616808252600183015493820193909352600282015486169481019490945260038101548516606085015260048101546080850152600581015460a0850152600681015460c0850152600781015460e08501529182015484166101008401526009820154610120840152600a90910154928316610140830152600160a01b90920460ff1615156101608201528991899190158061054d57508061016001515b6105695760405162461bcd60e51b8152600401610475906135e1565b6040516331a9108f60e11b8152600481018b90528b9033906001600160a01b03831690636352211e9060240160206040518083038186803b1580156105ad57600080fd5b505afa1580156105c1573d6000803e3d6000fd5b505050506040513d601f19601f820116820180604052508101906105e5919061337f565b6001600160a01b03161461062b5760405162461bcd60e51b815260206004820152600d60248201526c3737ba1037333a1037bbb732b960991b6044820152606401610475565b86861161066d5760405162461bcd60e51b815260206004820152601060248201526f696e76616c696420656e642074696d6560801b6044820152606401610475565b806001600160a01b03166323b872dd33308e6040518463ffffffff1660e01b815260040161069d93929190613557565b600060405180830381600087803b1580156106b757600080fd5b505af11580156106cb573d6000803e3d6000fd5b505050506040518061018001604052808d6001600160a01b031681526020018c8152602001336001600160a01b031681526020018b6001600160a01b031681526020018a815260200189815260200188815260200187815260200160006001600160a01b031681526020018a815260200160006001600160a01b0316815260200160001515815250600860008e6001600160a01b03166001600160a01b0316815260200190815260200160002060008d815260200190815260200160002060008201518160000160006101000a8154816001600160a01b0302191690836001600160a01b031602179055506020820151816001015560408201518160020160006101000a8154816001600160a01b0302191690836001600160a01b0316021790555060608201518160030160006101000a8154816001600160a01b0302191690836001600160a01b031602179055506080820151816004015560a0820151816005015560c0820151816006015560e082015181600701556101008201518160080160006101000a8154816001600160a01b0302191690836001600160a01b03160217905550610120820151816009015561014082015181600a0160006101000a8154816001600160a01b0302191690836001600160a01b0316021790555061016082015181600a0160146101000a81548160ff021916908315150217905550905050336001600160a01b03168b8d6001600160a01b03167f15888491dd8f256e5e28ceaf57c0db6819ae0399cc259e9764887563223f7acd8d8d8d8d8d6040516109429594939291906001600160a01b03959095168552602085019390935260408401919091526060830152608082015260a00190565b60405180910390a4505050505050505050505050565b6000546001600160a01b031633146109825760405162461bcd60e51b815260040161047590613618565b6001600160a01b0381166109c85760405162461bcd60e51b815260206004820152600d60248201526c34b73b30b634b2103a37b5b2b760991b6044820152606401610475565b6001600160a01b03811660009081526004602052604090205460ff1615610a295760405162461bcd60e51b815260206004820152601560248201527430b63932b0b23c903830bcb0b13632903a37b5b2b760591b6044820152606401610475565b6001600160a01b03166000818152600460205260408120805460ff191660019081179091556005805491820181559091527f036b6384b5eca791c62761152d0c79bb0604c104a5fb6f4eb0703f3154bb3db00180546001600160a01b0319169091179055565b6000546001600160a01b03163314610ab95760405162461bcd60e51b815260040161047590613618565b6001600160a01b038116610b045760405162461bcd60e51b815260206004820152601260248201527163616e27742062652030206164647265737360701b6044820152606401610475565b600380546001600160a01b0319166001600160a01b0392909216919091179055565b6001600160a01b038083166000908152600660209081526040808320858452825291829020825160c08101845281548516815260018201549281019290925260028101548416928201839052600381015490931660608201526004830154608082015260059092015460ff16151560a08301528391839115801590610bad57508060a00151155b610bc95760405162461bcd60e51b81526004016104759061364d565b6001600160a01b038086166000908152600660209081526040808320888452825291829020825160c08101845281548516815260018201549281019290925260028101548416928201839052600381015490931660608201526004830154608082015260059092015460ff16151560a08301523314610c7d5760405162461bcd60e51b815260206004820152601060248201526f3737ba103634b9ba32b21037bbb732b960811b6044820152606401610475565b6040516323b872dd60e01b81526001600160a01b038716906323b872dd90610cad90309033908a90600401613557565b600060405180830381600087803b158015610cc757600080fd5b505af1158015610cdb573d6000803e3d6000fd5b505050506001600160a01b0395909516600090815260066020908152604080832096835295905293842080546001600160a01b03199081168255600182018690556002820180548216905560038201805490911690556004810194909455505050600501805460ff1916905550565b6001600160a01b03808316600090815260076020908152604080832085845282528083203380855290835292819020815160c08101835281548616815260018201549381019390935260028101548516918301919091526003810154909316606082015260048301546080820181905260059093015460ff16151560a082015284928492919015801590610dea575060408101516001600160a01b031615155b610e295760405162461bcd60e51b815260206004820152601060248201526f1b9bdd081bd999995c9c9959081b999d60821b6044820152606401610475565b6001600160a01b03808716600090815260076020908152604080832089845282528083203380855290835292819020815160c08101835281548616815260018201549381019390935260028101548516918301829052600381015490941660608301526004840154608083015260059093015460ff16151560a08201529114610ee25760405162461bcd60e51b815260206004820152600b60248201526a3737ba1037b33332b932b960a91b6044820152606401610475565b8060a0015115610f2d5760405162461bcd60e51b81526020600482015260166024820152751bd999995c88185b1c9958591e481858d8d95c1d195960521b6044820152606401610475565b6001600160a01b0380881660009081526007602090815260408083208a8452825280832033845290915280822080546001600160a01b0319908116825560018201849055600282018054821690556003820180549091169055600480820193909355600501805460ff191690556060840151848201516080860151925163a9059cbb60e01b8152919094169363a9059cbb93610fcb9391920161357b565b602060405180830381600087803b158015610fe557600080fd5b505af1158015610ff9573d6000803e3d6000fd5b505050506040513d601f19601f8201168201806040525081019061101d91906134e6565b5060208101518151606083015160808401516040513394936001600160a01b0316927fefb35510217b7f826a226a55de4a753e6944118842f02b483169782e250c291c9261106a9261357b565b60405180910390a450505050505050565b606060058054806020026020016040519081016040528092919081815260200182805480156110d357602002820191906000526020600020905b81546001600160a01b031681526001909101906020018083116110b5575b5050505050905090565b6001600160a01b03821660009081526008602090815260408083208484529091529020600a0154600160a01b900460ff161561114e5760405162461bcd60e51b815260206004820152601060248201526f185b1c9958591e481c995cdd5b1d195960821b6044820152606401610475565b6000546001600160a01b031633148061118e57506001600160a01b0382811660009081526008602090815260408083208584529091529020600201541633145b806111bf57506001600160a01b03828116600090815260086020818152604080842086855290915290912001541633145b61120b5760405162461bcd60e51b815260206004820152601d60248201527f6e6f742063726561746f722c2077696e6e65722c206f72206f776e65720000006044820152606401610475565b6001600160a01b038216600090815260086020908152604080832084845290915290206007015442116112745760405162461bcd60e51b8152602060048201526011602482015270185d58dd1a5bdb881b9bdd08195b991959607a1b6044820152606401610475565b6001600160a01b038083166000818152600860209081526040808320868452825280832060038101548154600a8301805460028501546001600160a81b0319909116908a1617600160a01b179055835163257b706360e21b815293519297918216969116948994909391926395edc18c926004808201939291829003018186803b15801561130157600080fd5b505afa158015611315573d6000803e3d6000fd5b505050506040513d601f19601f82011682018060405250810190611339919061337f565b90506000826001600160a01b031663820bdcdc6040518163ffffffff1660e01b815260040160206040518083038186803b15801561137657600080fd5b505afa15801561138a573d6000803e3d6000fd5b505050506040513d601f19601f820116820180604052508101906113ae919061351e565b600987015490915080821561145b5760006113c98484611e3d565b60405163a9059cbb60e01b81529091506001600160a01b0389169063a9059cbb906113fa908890859060040161357b565b602060405180830381600087803b15801561141457600080fd5b505af1158015611428573d6000803e3d6000fd5b505050506040513d601f19601f8201168201806040525081019061144c91906134e6565b5061145781836136f3565b9150505b600061146683610405565b60035460405163a9059cbb60e01b81529192506001600160a01b03808b169263a9059cbb9261149b921690859060040161357b565b602060405180830381600087803b1580156114b557600080fd5b505af11580156114c9573d6000803e3d6000fd5b505050506040513d601f19601f820116820180604052508101906114ed91906134e6565b5060028901546001600160a01b03808a169163a9059cbb911661151084866136f3565b6040518363ffffffff1660e01b815260040161152d92919061357b565b602060405180830381600087803b15801561154757600080fd5b505af115801561155b573d6000803e3d6000fd5b505050506040513d601f19601f8201168201806040525081019061157f91906134e6565b50600889015460018a01546040516323b872dd60e01b81526001600160a01b038a8116936323b872dd936115bb93309390921691600401613557565b600060405180830381600087803b1580156115d557600080fd5b505af11580156115e9573d6000803e3d6000fd5b50505050600889015460028a015460098b0154604080516001600160a01b03938416815260208101929092523390820152918116918c918e16907f69b9e47c169c6463a921b70743b7d6705d5ee0b376296ae9bf0b1a3678fb3f5d9060600160405180910390a45050505050505050505050565b6000546001600160a01b031633146116875760405162461bcd60e51b815260040161047590613618565b6116916000613313565b565b6001600160a01b03828116600090815260086020818152604080842086855282529283902083516101808101855281548616808252600183015493820193909352600282015486169481019490945260038101548516606085015260048101546080850152600581015460a0850152600681015460c0850152600781015460e08501529182015484166101008401526009820154610120840152600a90910154928316610140830152600160a01b90920460ff1615156101608201528391839190158015906117655750806101600151155b6117815760405162461bcd60e51b8152600401610475906135e1565b6001600160a01b0385811660009081526008602081815260408084208985528252928390208351610180810185528154861681526001820154928101929092526002810154851693820184905260038101548516606083015260048101546080830152600581015460a0830152600681015460c0830152600781015460e08301529182015484166101008201526009820154610120820152600a90910154928316610140820152600160a01b90920460ff161515610160830152331461187f5760405162461bcd60e51b81526020600482015260136024820152723737ba1030bab1ba34b7b71031b932b0ba37b960691b6044820152606401610475565b8060c0015142106118d25760405162461bcd60e51b815260206004820152601760248201527f61756374696f6e20616c726561647920737461727465640000000000000000006044820152606401610475565b6101008101516001600160a01b0316156119245760405162461bcd60e51b815260206004820152601360248201527230b63932b0b23c903430bb32903134b23232b960691b6044820152606401610475565b6040516323b872dd60e01b815286906001600160a01b038216906323b872dd9061195690309033908b90600401613557565b600060405180830381600087803b15801561197057600080fd5b505af1158015611984573d6000803e3d6000fd5b5050506001600160a01b03909716600090815260086020818152604080842099845298905296812080546001600160a01b031990811682556001820183905560028201805482169055600382018054821690556004820183905560058201839055600682018390556007820183905597810180549098169097556009870155505050600a90920180546001600160a81b0319169055505050565b6001600160a01b038085166000908152600660209081526040808320878452825291829020825160c08101845281548516815260018201549281019290925260028101548416928201839052600381015490931660608201526004830154608082015260059092015460ff16151560a08301528591859115801590611aa557508060a00151155b611ac15760405162461bcd60e51b81526004016104759061364d565b60008411611b035760405162461bcd60e51b815260206004820152600f60248201526e070726963652063616e206e6f74203608c1b6044820152606401610475565b6001600160a01b0380881660009081526006602090815260408083208a8452825291829020825160c0810184528154851681526001820154928101929092526002810154841682840152600381015490931660608201819052600480850154608084015260059094015460ff16151560a083015291516323b872dd60e01b815290926323b872dd91611b9b91339130918b9101613557565b602060405180830381600087803b158015611bb557600080fd5b505af1158015611bc9573d6000803e3d6000fd5b505050506040513d601f19601f82011682018060405250810190611bed91906134e6565b506040518060c0016040528082600001516001600160a01b0316815260200182602001518152602001336001600160a01b03168152602001876001600160a01b0316815260200186815260200160001515815250600760008a6001600160a01b03166001600160a01b0316815260200190815260200160002060008981526020019081526020016000206000336001600160a01b03166001600160a01b0316815260200190815260200160002060008201518160000160006101000a8154816001600160a01b0302191690836001600160a01b031602179055506020820151816001015560408201518160020160006101000a8154816001600160a01b0302191690836001600160a01b0316021790555060608201518160030160006101000a8154816001600160a01b0302191690836001600160a01b031602179055506080820151816004015560a08201518160050160006101000a81548160ff021916908315150217905550905050336001600160a01b0316816020015182600001516001600160a01b03167f68440885b8f55b92e46c64e6e8e8e58f2cdfeb729aef39fae95e9ac075572129846060015189604051611daa92919061357b565b60405180910390a45050505050505050565b6000546001600160a01b03163314611de65760405162461bcd60e51b815260040161047590613618565b612710811115611e385760405162461bcd60e51b815260206004820152601a60248201527f63616e2774206d6f7265207468616e2031302070657263656e740000000000006044820152606401610475565b600255565b6000612710611e4c84846136d4565b611e5691906136b4565b9392505050565b6001600160a01b03838116600090815260086020818152604080842087855282529283902083516101808101855281548616808252600183015493820193909352600282015486169481019490945260038101548516606085015260048101546080850152600581015460a0850152600681015460c0850152600781015460e08501529182015484166101008401526009820154610120840152600a90910154928316610140830152600160a01b90920460ff161515610160820152849184919015801590611f2f5750806101600151155b611f4b5760405162461bcd60e51b8152600401610475906135e1565b6001600160a01b0386166000908152600860209081526040808320888452909152902060060154421015611fb55760405162461bcd60e51b8152602060048201526011602482015270185d58dd1a5bdb881b9bdd081cdd185c9d607a1b6044820152606401610475565b6001600160a01b038616600090815260086020908152604080832088845290915290206007015442111561201b5760405162461bcd60e51b815260206004820152600d60248201526c185d58dd1a5bdb88195b991959609a1b6044820152606401610475565b6001600160a01b038616600090815260086020908152604080832088845290915290206005810154600990910154612053919061369c565b8410156120a25760405162461bcd60e51b815260206004820152601760248201527f6c657373207468616e206d696e206269642070726963650000000000000000006044820152606401610475565b6001600160a01b03808716600090815260086020908152604080832089845290915290819020600381015491516323b872dd60e01b81529092919091169081906323b872dd906120fa90339030908b90600401613557565b602060405180830381600087803b15801561211457600080fd5b505af1158015612128573d6000803e3d6000fd5b505050506040513d601f19601f8201168201806040525081019061214c91906134e6565b5060088201546001600160a01b0316156121f2576008820154600983015460405163a9059cbb60e01b81526001600160a01b039283169284169063a9059cbb9061219c908590859060040161357b565b602060405180830381600087803b1580156121b657600080fd5b505af11580156121ca573d6000803e3d6000fd5b505050506040513d601f19601f820116820180604052508101906121ee91906134e6565b5050505b6008820180546001600160a01b0319163390811790915560098301879055600383015460405189916001600160a01b038c8116927f1366a066e0b6138abe26f53c966c9de1cfc0f79f586100f5c785c9a5ea19890592611daa9216908c9061357b565b60405163debe518d60e01b81526001600160a01b03808616600483015285917f00000000000000000000000000000000000000000000000000000000000000009091169063debe518d9060240160206040518083038186803b1580156122ba57600080fd5b505afa1580156122ce573d6000803e3d6000fd5b505050506040513d601f19601f820116820180604052508101906122f291906134e6565b61232f5760405162461bcd60e51b815260206004820152600e60248201526d1b9bdd0812dd5a5c195c8813919560921b6044820152606401610475565b826001600160a01b0381161580159061236057506001600160a01b03811660009081526004602052604090205460ff165b61237c5760405162461bcd60e51b815260040161047590613671565b6040516331a9108f60e11b815260048101869052869033906001600160a01b03831690636352211e9060240160206040518083038186803b1580156123c057600080fd5b505afa1580156123d4573d6000803e3d6000fd5b505050506040513d601f19601f820116820180604052508101906123f8919061337f565b6001600160a01b03161461243e5760405162461bcd60e51b815260206004820152600d60248201526c3737ba1037333a1037bbb732b960991b6044820152606401610475565b6040516323b872dd60e01b81526001600160a01b038216906323b872dd9061246e90339030908b90600401613557565b600060405180830381600087803b15801561248857600080fd5b505af115801561249c573d6000803e3d6000fd5b505050506040518060c00160405280886001600160a01b03168152602001878152602001336001600160a01b03168152602001866001600160a01b031681526020018581526020016000151581525060066000896001600160a01b03166001600160a01b03168152602001908152602001600020600088815260200190815260200160002060008201518160000160006101000a8154816001600160a01b0302191690836001600160a01b031602179055506020820151816001015560408201518160020160006101000a8154816001600160a01b0302191690836001600160a01b0316021790555060608201518160030160006101000a8154816001600160a01b0302191690836001600160a01b031602179055506080820151816004015560a08201518160050160006101000a81548160ff021916908315150217905550905050336001600160a01b031686886001600160a01b03167fd3c529cf7f810e6effd6ee492c3c44aaaeaab46bb7b4d6d3f01d0aecf487f6b9888860405161106a92919061357b565b6001600160a01b03808416600090815260076020908152604080832086845282528083208486168452825291829020825160c08101845281548516815260018201549281019290925260028101548416928201929092526003820154909216606083015260048101546080830181905260059091015460ff16151560a083015284918491849190158015906126c6575060408101516001600160a01b031615155b6127055760405162461bcd60e51b815260206004820152601060248201526f1b9bdd081bd999995c9c9959081b999d60821b6044820152606401610475565b6001600160a01b0380881660009081526006602090815260408083208a8452825291829020825160c08101845281548516815260018201549281019290925260028101548416928201839052600381015490931660608201526004830154608082015260059092015460ff16151560a0830152889188911580159061278c57508060a00151155b6127a85760405162461bcd60e51b81526004016104759061364d565b6001600160a01b038a811660009081526006602090815260408083208d84529091529020600201541633146128125760405162461bcd60e51b815260206004820152601060248201526f3737ba103634b9ba32b21037bbb732b960811b6044820152606401610475565b6001600160a01b03808b1660009081526007602090815260408083208d845282528083208c8516845282528083208054909416835260068252808320600185015484529091529020600581015460ff161561289e5760405162461bcd60e51b815260206004820152600c60248201526b185b1c9958591e481cdbdb1960a21b6044820152606401610475565b600582015460ff16156128ec5760405162461bcd60e51b81526020600482015260166024820152751bd999995c88185b1c9958591e481858d8d95c1d195960521b6044820152606401610475565b60058181018054600160ff199182168117909255918401805490921617905560048083015483546040805163257b706360e21b81529051929384936001600160a01b039093169260009284926395edc18c928282019260209290829003018186803b15801561295a57600080fd5b505afa15801561296e573d6000803e3d6000fd5b505050506040513d601f19601f82011682018060405250810190612992919061337f565b90506000826001600160a01b031663820bdcdc6040518163ffffffff1660e01b815260040160206040518083038186803b1580156129cf57600080fd5b505afa1580156129e3573d6000803e3d6000fd5b505050506040513d601f19601f82011682018060405250810190612a07919061351e565b60038801549091506001600160a01b03168115612abc576000612a2a8388611e3d565b60405163a9059cbb60e01b81529091506001600160a01b0383169063a9059cbb90612a5b908790859060040161357b565b602060405180830381600087803b158015612a7557600080fd5b505af1158015612a89573d6000803e3d6000fd5b505050506040513d601f19601f82011682018060405250810190612aad91906134e6565b50612ab881876136f3565b9550505b6000612ac787610405565b60035460405163a9059cbb60e01b81529192506001600160a01b038085169263a9059cbb92612afc921690859060040161357b565b602060405180830381600087803b158015612b1657600080fd5b505af1158015612b2a573d6000803e3d6000fd5b505050506040513d601f19601f82011682018060405250810190612b4e91906134e6565b5060028801546001600160a01b038084169163a9059cbb9116612b71848a6136f3565b6040518363ffffffff1660e01b8152600401612b8e92919061357b565b602060405180830381600087803b158015612ba857600080fd5b505af1158015612bbc573d6000803e3d6000fd5b505050506040513d601f19601f82011682018060405250810190612be091906134e6565b50875460028a015460018a0154604051632142170760e11b81526001600160a01b03938416936342842e0e93612c1f9330939290911691600401613557565b600060405180830381600087803b158015612c3957600080fd5b505af1158015612c4d573d6000803e3d6000fd5b5050505060028881015460018b01548b5460038d015460048e0154948e0154604080516001600160a01b03938416815260208101979097529082169086015292831693919216907f9e4a193680f4538a4b29d70aa5b240ca9068a1d971f7932be2c8b92e6c4b31ce9060600160405180910390a450505050505050505050505050505050505050565b6001600160a01b038085166000908152600660209081526040808320878452825291829020825160c08101845281548516815260018201549281019290925260028101548416928201839052600381015490931660608201526004830154608082015260059092015460ff16151560a08301528591859115801590612d5d57508060a00151155b612d795760405162461bcd60e51b81526004016104759061364d565b6001600160a01b0380881660009081526006602090815260408083208a8452909152902090861615801590612dbd575060038101546001600160a01b038781169116145b612dd95760405162461bcd60e51b815260040161047590613671565b600581015460ff1615612e215760405162461bcd60e51b815260206004820152601060248201526f1b999d08185b1c9958591e481cdbdb1960821b6044820152606401610475565b8060040154851015612e655760405162461bcd60e51b815260206004820152600d60248201526c696e76616c696420707269636560981b6044820152606401610475565b60058101805460ff1916600117905580546040805163257b706360e21b8152905187926001600160a01b03169160009183916395edc18c916004808301926020929190829003018186803b158015612ebc57600080fd5b505afa158015612ed0573d6000803e3d6000fd5b505050506040513d601f19601f82011682018060405250810190612ef4919061337f565b90506000826001600160a01b031663820bdcdc6040518163ffffffff1660e01b815260040160206040518083038186803b158015612f3157600080fd5b505afa158015612f45573d6000803e3d6000fd5b505050506040513d601f19601f82011682018060405250810190612f69919061351e565b90508015613015576000612f7d828b611e3d565b60038701546040516323b872dd60e01b81529192506001600160a01b0316906323b872dd90612fb490339087908690600401613557565b602060405180830381600087803b158015612fce57600080fd5b505af1158015612fe2573d6000803e3d6000fd5b505050506040513d601f19601f8201168201806040525081019061300691906134e6565b5061301181866136f3565b9450505b60006130208a610405565b60038088015490546040516323b872dd60e01b81529293506001600160a01b03918216926323b872dd9261305d9233929116908690600401613557565b602060405180830381600087803b15801561307757600080fd5b505af115801561308b573d6000803e3d6000fd5b505050506040513d601f19601f820116820180604052508101906130af91906134e6565b50600386015460028701546001600160a01b03918216916323b872dd913391166130d9858a6136f3565b6040518463ffffffff1660e01b81526004016130f793929190613557565b602060405180830381600087803b15801561311157600080fd5b505af1158015613125573d6000803e3d6000fd5b505050506040513d601f19601f8201168201806040525081019061314991906134e6565b5085546001870154604051632142170760e11b81526001600160a01b03909216916342842e0e916131809130913391600401613557565b600060405180830381600087803b15801561319a57600080fd5b505af11580156131ae573d6000803e3d6000fd5b50505050336001600160a01b031686600101548760000160009054906101000a90046001600160a01b03166001600160a01b03167f72136ea02664c7ef94168318a5622b2f8cc9e3a3f2bfd6fbdff378aa303e4beb8960030160009054906101000a90046001600160a01b03168e8b60020160009054906101000a90046001600160a01b0316604051613261939291906001600160a01b0393841681526020810192909252909116604082015260600190565b60405180910390a450505050505050505050505050565b6000546001600160a01b031633146132a25760405162461bcd60e51b815260040161047590613618565b6001600160a01b0381166133075760405162461bcd60e51b815260206004820152602660248201527f4f776e61626c653a206e6577206f776e657220697320746865207a65726f206160448201526564647265737360d01b6064820152608401610475565b61331081613313565b50565b600080546001600160a01b038381166001600160a01b0319831681178455604051919092169283917f8be0079c531659141344cd1fd0a4f28419497f9722a3daafe3b4186f6b6457e09190a35050565b600060208284031215613374578081fd5b8135611e5681613720565b600060208284031215613390578081fd5b8151611e5681613720565b600080604083850312156133ad578081fd5b82356133b881613720565b946020939093013593505050565b6000806000606084860312156133da578081fd5b83356133e581613720565b92506020840135915060408401356133fc81613720565b809150509250925092565b6000806000806080858703121561341c578081fd5b843561342781613720565b935060208501359250604085013561343e81613720565b9396929550929360600135925050565b600080600080600080600060e0888a031215613468578283fd5b873561347381613720565b965060208801359550604088013561348a81613720565b969995985095966060810135965060808101359560a0820135955060c0909101359350915050565b6000806000606084860312156134c6578283fd5b83356134d181613720565b95602085013595506040909401359392505050565b6000602082840312156134f7578081fd5b81518015158114611e56578182fd5b600060208284031215613517578081fd5b5035919050565b60006020828403121561352f578081fd5b5051919050565b60008060408385031215613548578182fd5b50508035926020909101359150565b6001600160a01b039384168152919092166020820152604081019190915260600190565b6001600160a01b03929092168252602082015260400190565b6020808252825182820181905260009190848201906040850190845b818110156135d55783516001600160a01b0316835292840192918401916001016135b0565b50909695505050505050565b60208082526017908201527f61756374696f6e20616c72656164792063726561746564000000000000000000604082015260600190565b6020808252818101527f4f776e61626c653a2063616c6c6572206973206e6f7420746865206f776e6572604082015260600190565b6020808252600a90820152691b9bdd081b1a5cdd195960b21b604082015260600190565b60208082526011908201527034b73b30b634b2103830bc903a37b5b2b760791b604082015260600190565b600082198211156136af576136af61370a565b500190565b6000826136cf57634e487b7160e01b81526012600452602481fd5b500490565b60008160001904831182151516156136ee576136ee61370a565b500290565b6000828210156137055761370561370a565b500390565b634e487b7160e01b600052601160045260246000fd5b6001600160a01b038116811461331057600080fdfea2646970667358221220dd4dc67af9430f9107cd4a85d49baaf41e05b52d08c9ca984c352a1801725a2a64736f6c63430008040033",
  "linkReferences": {},
  "deployedLinkReferences": {}
}