{
  "_format": "hh-sol-artifact-1",
  "contractName": "KuiperNFTFactory",
  "sourceName": "contracts/KuiperNFTFactory.sol",
  "abi": [
    {
      "anonymous": false,
      "inputs": [
        {
          "indexed": false,
          "internalType": "address",
          "name": "creator",
          "type": "address"
        },
        {
          "indexed": false,
          "internalType": "address",
          "name": "nft",
          "type": "address"
        },
        {
          "indexed": false,
          "internalType": "string",
          "name": "name",
          "type": "string"
        },
        {
          "indexed": false,
          "internalType": "string",
          "name": "symbol",
          "type": "string"
        }
      ],
      "name": "CreatedNFTCollection",
      "type": "event"
    },
    {
      "stateMutability": "payable",
      "type": "fallback"
    },
    {
      "inputs": [
        {
          "internalType": "string",
          "name": "_name",
          "type": "string"
        },
        {
          "internalType": "string",
          "name": "_symbol",
          "type": "string"
        },
        {
          "internalType": "uint256",
          "name": "_royaltyFee",
          "type": "uint256"
        },
        {
          "internalType": "address",
          "name": "_royaltyRecipient",
          "type": "address"
        }
      ],
      "name": "createNFTCollection",
      "outputs": [],
      "stateMutability": "nonpayable",
      "type": "function"
    },
    {
      "inputs": [],
      "name": "getOwnCollections",
      "outputs": [
        {
          "internalType": "address[]",
          "name": "",
          "type": "address[]"
        }
      ],
      "stateMutability": "view",
      "type": "function"
    },
    {
      "inputs": [
        {
          "internalType": "address",
          "name": "_nft",
          "type": "address"
        }
      ],
      "name": "isKuiperNFT",
      "outputs": [
        {
          "internalType": "bool",
          "name": "",
          "type": "bool"
        }
      ],
      "stateMutability": "view",
      "type": "function"
    },
    {
      "stateMutability": "payable",
      "type": "receive"
    }
  ],
  "bytecode": "0x608060405234801561001057600080fd5b50612659806100206000396000f3fe6080604052600436106200003d5760003560e01c80637a3c7a2c14620000aa578063cdbe0fc314620000cf578063debe518d14620000ff5762000077565b366200007757620000756040518060400160405280600e81526020016d1696969696903932b1b2b4bb329d60911b815250346200014d565b005b620000756040518060400160405280600f81526020016e1696969696903330b6363130b1b59d60891b815250346200014d565b348015620000b757600080fd5b5062000075620000c9366004620003ed565b6200019a565b348015620000dc57600080fd5b50620000e762000275565b604051620000f691906200050c565b60405180910390f35b3480156200010c57600080fd5b506200013c6200011e366004620003c9565b6001600160a01b031660009081526001602052604090205460ff1690565b6040519015158152602001620000f6565b62000196828260405160240162000166929190620005af565b60408051601f198184030181529190526020810180516001600160e01b0316632d839cb360e21b179052620002e0565b5050565b60008484338585604051620001af906200030f565b620001bf9594939291906200055b565b604051809103906000f080158015620001dc573d6000803e3d6000fd5b50336000818152602081815260408083208054600180820183559185528385200180546001600160a01b0319166001600160a01b03881690811790915584529182905291829020805460ff19169091179055519192507f63769cea406878ef0dbb67fc60c62a7c20747798c2703734c451fa2e8381ef2491620002669190849089908990620004bf565b60405180910390a15050505050565b3360009081526020818152604091829020805483518184028101840190945280845260609392830182828015620002d657602002820191906000526020600020905b81546001600160a01b03168152600190910190602001808311620002b7575b5050505050905090565b620002eb81620002ee565b50565b60006a636f6e736f6c652e6c6f679050600080835160208501845afa505050565b61203a80620005ea83390190565b80356001600160a01b03811681146200033557600080fd5b919050565b600082601f8301126200034b578081fd5b813567ffffffffffffffff80821115620003695762000369620005d3565b604051601f8301601f19908116603f01168101908282118183101715620003945762000394620005d3565b81604052838152866020858801011115620003ad578485fd5b8360208701602083013792830160200193909352509392505050565b600060208284031215620003db578081fd5b620003e6826200031d565b9392505050565b6000806000806080858703121562000403578283fd5b843567ffffffffffffffff808211156200041b578485fd5b62000429888389016200033a565b955060208701359150808211156200043f578485fd5b506200044e878288016200033a565b9350506040850135915062000466606086016200031d565b905092959194509250565b60008151808452815b8181101562000498576020818501810151868301820152016200047a565b81811115620004aa5782602083870101525b50601f01601f19169290920160200192915050565b6001600160a01b03858116825284166020820152608060408201819052600090620004ed9083018562000471565b828103606084015262000501818562000471565b979650505050505050565b6020808252825182820181905260009190848201906040850190845b818110156200054f5783516001600160a01b03168352928401929184019160010162000528565b50909695505050505050565b60a0815260006200057060a083018862000471565b828103602084015262000584818862000471565b6001600160a01b03968716604085015260608401959095525050921660809092019190915292915050565b604081526000620005c4604083018562000471565b90508260208301529392505050565b634e487b7160e01b600052604160045260246000fdfe60806040523480156200001157600080fd5b506040516200203a3803806200203a8339810160408190526200003491620003bf565b8451859085906200004d90600090602085019062000249565b5080516200006390600190602084019062000249565b505050620000806200007a6200012260201b60201c565b62000126565b612710821115620000d85760405162461bcd60e51b815260206004820152601a60248201527f63616e2774206d6f7265207468616e2031302070657263656e7400000000000060448201526064015b60405180910390fd5b6001600160a01b038116620000ec57600080fd5b6009829055600a80546001600160a01b0319166001600160a01b038316179055620001178362000178565b5050505050620004a8565b3390565b600780546001600160a01b038381166001600160a01b0319831681179093556040519116919082907f8be0079c531659141344cd1fd0a4f28419497f9722a3daafe3b4186f6b6457e090600090a35050565b6007546001600160a01b03163314620001d45760405162461bcd60e51b815260206004820181905260248201527f4f776e61626c653a2063616c6c6572206973206e6f7420746865206f776e65726044820152606401620000cf565b6001600160a01b0381166200023b5760405162461bcd60e51b815260206004820152602660248201527f4f776e61626c653a206e6577206f776e657220697320746865207a65726f206160448201526564647265737360d01b6064820152608401620000cf565b620002468162000126565b50565b828054620002579062000455565b90600052602060002090601f0160209004810192826200027b5760008555620002c6565b82601f106200029657805160ff1916838001178555620002c6565b82800160010185558215620002c6579182015b82811115620002c6578251825591602001919060010190620002a9565b50620002d4929150620002d8565b5090565b5b80821115620002d45760008155600101620002d9565b80516001600160a01b03811681146200030757600080fd5b919050565b600082601f8301126200031d578081fd5b81516001600160401b03808211156200033a576200033a62000492565b604051601f8301601f19908116603f0116810190828211818310171562000365576200036562000492565b8160405283815260209250868385880101111562000381578485fd5b8491505b83821015620003a4578582018301518183018401529082019062000385565b83821115620003b557848385830101525b9695505050505050565b600080600080600060a08688031215620003d7578081fd5b85516001600160401b0380821115620003ee578283fd5b620003fc89838a016200030c565b9650602088015191508082111562000412578283fd5b5062000421888289016200030c565b9450506200043260408701620002ef565b9250606086015191506200044960808701620002ef565b90509295509295909350565b600181811c908216806200046a57607f821691505b602082108114156200048c57634e487b7160e01b600052602260045260246000fd5b50919050565b634e487b7160e01b600052604160045260246000fd5b611b8280620004b86000396000f3fe608060405234801561001057600080fd5b50600436106101375760003560e01c8063715018a6116100b8578063a22cb4651161007c578063a22cb46514610273578063b88d4fde14610286578063c87b56dd14610299578063d204c45e146102ac578063e985e9c5146102bf578063f2fde38b146102fb57600080fd5b8063715018a614610239578063820bdcdc146102415780638da5cb5b1461024957806395d89b411461025a57806395edc18c1461026257600080fd5b806342842e0e116100ff57806342842e0e146101cc57806342966c68146101df5780634e83be47146101f25780636352211e1461020557806370a082311461021857600080fd5b806301ffc9a71461013c57806306fdde0314610164578063081812fc14610179578063095ea7b3146101a457806323b872dd146101b9575b600080fd5b61014f61014a366004611848565b61030e565b60405190151581526020015b60405180910390f35b61016c610360565b60405161015b9190611930565b61018c610187366004611880565b6103f2565b6040516001600160a01b03909116815260200161015b565b6101b76101b236600461181f565b61047f565b005b6101b76101c73660046116d2565b610595565b6101b76101da3660046116d2565b6105c7565b6101b76101ed366004611880565b6105e2565b6101b7610200366004611880565b61065c565b61018c610213366004611880565b6106dd565b61022b610226366004611686565b610754565b60405190815260200161015b565b6101b76107db565b60095461022b565b6007546001600160a01b031661018c565b61016c610811565b600a546001600160a01b031661018c565b6101b7610281366004611786565b610820565b6101b761029436600461170d565b61082f565b61016c6102a7366004611880565b610867565b6101b76102ba3660046117c0565b610872565b61014f6102cd3660046116a0565b6001600160a01b03918216600090815260056020908152604080832093909416825291909152205460ff1690565b6101b7610309366004611686565b6108cb565b60006001600160e01b031982166380ac58cd60e01b148061033f57506001600160e01b03198216635b5e139f60e01b145b8061035a57506301ffc9a760e01b6001600160e01b03198316145b92915050565b60606000805461036f90611a8a565b80601f016020809104026020016040519081016040528092919081815260200182805461039b90611a8a565b80156103e85780601f106103bd576101008083540402835291602001916103e8565b820191906000526020600020905b8154815290600101906020018083116103cb57829003601f168201915b5050505050905090565b60006103fd82610963565b6104635760405162461bcd60e51b815260206004820152602c60248201527f4552433732313a20617070726f76656420717565727920666f72206e6f6e657860448201526b34b9ba32b73a103a37b5b2b760a11b60648201526084015b60405180910390fd5b506000908152600460205260409020546001600160a01b031690565b600061048a826106dd565b9050806001600160a01b0316836001600160a01b031614156104f85760405162461bcd60e51b815260206004820152602160248201527f4552433732313a20617070726f76616c20746f2063757272656e74206f776e656044820152603960f91b606482015260840161045a565b336001600160a01b0382161480610514575061051481336102cd565b6105865760405162461bcd60e51b815260206004820152603860248201527f4552433732313a20617070726f76652063616c6c6572206973206e6f74206f7760448201527f6e6572206e6f7220617070726f76656420666f7220616c6c0000000000000000606482015260840161045a565b6105908383610980565b505050565b6105a0335b826109ee565b6105bc5760405162461bcd60e51b815260040161045a906119ca565b610590838383610ad8565b6105908383836040518060200160405280600081525061082f565b6105eb3361059a565b6106505760405162461bcd60e51b815260206004820152603060248201527f4552433732314275726e61626c653a2063616c6c6572206973206e6f74206f7760448201526f1b995c881b9bdc88185c1c1c9bdd995960821b606482015260840161045a565b61065981610c74565b50565b6007546001600160a01b031633146106865760405162461bcd60e51b815260040161045a90611995565b6127108111156106d85760405162461bcd60e51b815260206004820152601a60248201527f63616e2774206d6f7265207468616e2031302070657263656e74000000000000604482015260640161045a565b600955565b6000818152600260205260408120546001600160a01b03168061035a5760405162461bcd60e51b815260206004820152602960248201527f4552433732313a206f776e657220717565727920666f72206e6f6e657869737460448201526832b73a103a37b5b2b760b91b606482015260840161045a565b60006001600160a01b0382166107bf5760405162461bcd60e51b815260206004820152602a60248201527f4552433732313a2062616c616e636520717565727920666f7220746865207a65604482015269726f206164647265737360b01b606482015260840161045a565b506001600160a01b031660009081526003602052604090205490565b6007546001600160a01b031633146108055760405162461bcd60e51b815260040161045a90611995565b61080f6000610c7d565b565b60606001805461036f90611a8a565b61082b338383610ccf565b5050565b61083933836109ee565b6108555760405162461bcd60e51b815260040161045a906119ca565b61086184848484610d9e565b50505050565b606061035a82610dd1565b6007546001600160a01b0316331461089c5760405162461bcd60e51b815260040161045a90611995565b60006108a760085490565b90506108b7600880546001019055565b6108c18382610f40565b6105908183610f5a565b6007546001600160a01b031633146108f55760405162461bcd60e51b815260040161045a90611995565b6001600160a01b03811661095a5760405162461bcd60e51b815260206004820152602660248201527f4f776e61626c653a206e6577206f776e657220697320746865207a65726f206160448201526564647265737360d01b606482015260840161045a565b61065981610c7d565b6000908152600260205260409020546001600160a01b0316151590565b600081815260046020526040902080546001600160a01b0319166001600160a01b03841690811790915581906109b5826106dd565b6001600160a01b03167f8c5be1e5ebec7d5bd14f71427d1e84f3dd0314c0f7b2291e5b200ac8c7c3b92560405160405180910390a45050565b60006109f982610963565b610a5a5760405162461bcd60e51b815260206004820152602c60248201527f4552433732313a206f70657261746f7220717565727920666f72206e6f6e657860448201526b34b9ba32b73a103a37b5b2b760a11b606482015260840161045a565b6000610a65836106dd565b9050806001600160a01b0316846001600160a01b03161480610aac57506001600160a01b0380821660009081526005602090815260408083209388168352929052205460ff165b80610ad05750836001600160a01b0316610ac5846103f2565b6001600160a01b0316145b949350505050565b826001600160a01b0316610aeb826106dd565b6001600160a01b031614610b4f5760405162461bcd60e51b815260206004820152602560248201527f4552433732313a207472616e736665722066726f6d20696e636f72726563742060448201526437bbb732b960d91b606482015260840161045a565b6001600160a01b038216610bb15760405162461bcd60e51b8152602060048201526024808201527f4552433732313a207472616e7366657220746f20746865207a65726f206164646044820152637265737360e01b606482015260840161045a565b610bbc600082610980565b6001600160a01b0383166000908152600360205260408120805460019290610be5908490611a47565b90915550506001600160a01b0382166000908152600360205260408120805460019290610c13908490611a1b565b909155505060008181526002602052604080822080546001600160a01b0319166001600160a01b0386811691821790925591518493918716917fddf252ad1be2c89b69c2b068fc378daa952ba7f163c4a11628f55a4df523b3ef91a4505050565b61065981610fe5565b600780546001600160a01b038381166001600160a01b0319831681179093556040519116919082907f8be0079c531659141344cd1fd0a4f28419497f9722a3daafe3b4186f6b6457e090600090a35050565b816001600160a01b0316836001600160a01b03161415610d315760405162461bcd60e51b815260206004820152601960248201527f4552433732313a20617070726f766520746f2063616c6c657200000000000000604482015260640161045a565b6001600160a01b03838116600081815260056020908152604080832094871680845294825291829020805460ff191686151590811790915591519182527f17307eab39ab6107e8899845ad3d59bd9653f200f220920489ca2b5937696c31910160405180910390a3505050565b610da9848484610ad8565b610db584848484611025565b6108615760405162461bcd60e51b815260040161045a90611943565b6060610ddc82610963565b610e425760405162461bcd60e51b815260206004820152603160248201527f45524337323155524953746f726167653a2055524920717565727920666f72206044820152703737b732bc34b9ba32b73a103a37b5b2b760791b606482015260840161045a565b60008281526006602052604081208054610e5b90611a8a565b80601f0160208091040260200160405190810160405280929190818152602001828054610e8790611a8a565b8015610ed45780601f10610ea957610100808354040283529160200191610ed4565b820191906000526020600020905b815481529060010190602001808311610eb757829003601f168201915b505050505090506000610ef260408051602081019091526000815290565b9050805160001415610f05575092915050565b815115610f37578082604051602001610f1f9291906118c4565b60405160208183030381529060405292505050919050565b610ad084611132565b61082b82826040518060200160405280600081525061120a565b610f6382610963565b610fc65760405162461bcd60e51b815260206004820152602e60248201527f45524337323155524953746f726167653a2055524920736574206f66206e6f6e60448201526d32bc34b9ba32b73a103a37b5b2b760911b606482015260840161045a565b6000828152600660209081526040909120825161059092840190611525565b610fee8161123d565b6000818152600660205260409020805461100790611a8a565b159050610659576000818152600660205260408120610659916115a9565b60006001600160a01b0384163b1561112757604051630a85bd0160e11b81526001600160a01b0385169063150b7a02906110699033908990889088906004016118f3565b602060405180830381600087803b15801561108357600080fd5b505af19250505080156110b3575060408051601f3d908101601f191682019092526110b091810190611864565b60015b61110d573d8080156110e1576040519150601f19603f3d011682016040523d82523d6000602084013e6110e6565b606091505b5080516111055760405162461bcd60e51b815260040161045a90611943565b805181602001fd5b6001600160e01b031916630a85bd0160e11b149050610ad0565b506001949350505050565b606061113d82610963565b6111a15760405162461bcd60e51b815260206004820152602f60248201527f4552433732314d657461646174613a2055524920717565727920666f72206e6f60448201526e3732bc34b9ba32b73a103a37b5b2b760891b606482015260840161045a565b60006111b860408051602081019091526000815290565b905060008151116111d85760405180602001604052806000815250611203565b806111e2846112d8565b6040516020016111f39291906118c4565b6040516020818303038152906040525b9392505050565b61121483836113f2565b6112216000848484611025565b6105905760405162461bcd60e51b815260040161045a90611943565b6000611248826106dd565b9050611255600083610980565b6001600160a01b038116600090815260036020526040812080546001929061127e908490611a47565b909155505060008281526002602052604080822080546001600160a01b0319169055518391906001600160a01b038416907fddf252ad1be2c89b69c2b068fc378daa952ba7f163c4a11628f55a4df523b3ef908390a45050565b6060816112fc5750506040805180820190915260018152600360fc1b602082015290565b8160005b8115611326578061131081611ac5565b915061131f9050600a83611a33565b9150611300565b60008167ffffffffffffffff81111561134f57634e487b7160e01b600052604160045260246000fd5b6040519080825280601f01601f191660200182016040528015611379576020820181803683370190505b5090505b8415610ad05761138e600183611a47565b915061139b600a86611ae0565b6113a6906030611a1b565b60f81b8183815181106113c957634e487b7160e01b600052603260045260246000fd5b60200101906001600160f81b031916908160001a9053506113eb600a86611a33565b945061137d565b6001600160a01b0382166114485760405162461bcd60e51b815260206004820181905260248201527f4552433732313a206d696e7420746f20746865207a65726f2061646472657373604482015260640161045a565b61145181610963565b1561149e5760405162461bcd60e51b815260206004820152601c60248201527f4552433732313a20746f6b656e20616c7265616479206d696e74656400000000604482015260640161045a565b6001600160a01b03821660009081526003602052604081208054600192906114c7908490611a1b565b909155505060008181526002602052604080822080546001600160a01b0319166001600160a01b03861690811790915590518392907fddf252ad1be2c89b69c2b068fc378daa952ba7f163c4a11628f55a4df523b3ef908290a45050565b82805461153190611a8a565b90600052602060002090601f0160209004810192826115535760008555611599565b82601f1061156c57805160ff1916838001178555611599565b82800160010185558215611599579182015b8281111561159957825182559160200191906001019061157e565b506115a59291506115df565b5090565b5080546115b590611a8a565b6000825580601f106115c5575050565b601f01602090049060005260206000209081019061065991905b5b808211156115a557600081556001016115e0565b600067ffffffffffffffff8084111561160f5761160f611b20565b604051601f8501601f19908116603f0116810190828211818310171561163757611637611b20565b8160405280935085815286868601111561165057600080fd5b858560208301376000602087830101525050509392505050565b80356001600160a01b038116811461168157600080fd5b919050565b600060208284031215611697578081fd5b6112038261166a565b600080604083850312156116b2578081fd5b6116bb8361166a565b91506116c96020840161166a565b90509250929050565b6000806000606084860312156116e6578081fd5b6116ef8461166a565b92506116fd6020850161166a565b9150604084013590509250925092565b60008060008060808587031215611722578081fd5b61172b8561166a565b93506117396020860161166a565b925060408501359150606085013567ffffffffffffffff81111561175b578182fd5b8501601f8101871361176b578182fd5b61177a878235602084016115f4565b91505092959194509250565b60008060408385031215611798578182fd5b6117a18361166a565b9150602083013580151581146117b5578182fd5b809150509250929050565b600080604083850312156117d2578182fd5b6117db8361166a565b9150602083013567ffffffffffffffff8111156117f6578182fd5b8301601f81018513611806578182fd5b611815858235602084016115f4565b9150509250929050565b60008060408385031215611831578182fd5b61183a8361166a565b946020939093013593505050565b600060208284031215611859578081fd5b813561120381611b36565b600060208284031215611875578081fd5b815161120381611b36565b600060208284031215611891578081fd5b5035919050565b600081518084526118b0816020860160208601611a5e565b601f01601f19169290920160200192915050565b600083516118d6818460208801611a5e565b8351908301906118ea818360208801611a5e565b01949350505050565b6001600160a01b038581168252841660208201526040810183905260806060820181905260009061192690830184611898565b9695505050505050565b6020815260006112036020830184611898565b60208082526032908201527f4552433732313a207472616e7366657220746f206e6f6e20455243373231526560408201527131b2b4bb32b91034b6b83632b6b2b73a32b960711b606082015260800190565b6020808252818101527f4f776e61626c653a2063616c6c6572206973206e6f7420746865206f776e6572604082015260600190565b60208082526031908201527f4552433732313a207472616e736665722063616c6c6572206973206e6f74206f6040820152701ddb995c881b9bdc88185c1c1c9bdd9959607a1b606082015260800190565b60008219821115611a2e57611a2e611af4565b500190565b600082611a4257611a42611b0a565b500490565b600082821015611a5957611a59611af4565b500390565b60005b83811015611a79578181015183820152602001611a61565b838111156108615750506000910152565b600181811c90821680611a9e57607f821691505b60208210811415611abf57634e487b7160e01b600052602260045260246000fd5b50919050565b6000600019821415611ad957611ad9611af4565b5060010190565b600082611aef57611aef611b0a565b500690565b634e487b7160e01b600052601160045260246000fd5b634e487b7160e01b600052601260045260246000fd5b634e487b7160e01b600052604160045260246000fd5b6001600160e01b03198116811461065957600080fdfea26469706673582212202ae0cc7dc079b846c89efdc41693fdf36b4ace934396cf546da7c9716a27bc1464736f6c63430008040033a2646970667358221220dfe72b3b25773ede034ad138822fb733e99a4cb893625313c8fd43fc6155087064736f6c63430008040033",
  "linkReferences": {},
  "deployedLinkReferences": {}
}